:100000009DC100000C94A5180C94D0180C94FB18FA
:100010000C9426190C9451190C947C190C94A71962
:100020000C94D219BCC10000BAC10000B8C10000D4
:10003000B6C100000C944C20B2C10000B0C1000059
:10004000AEC10000ACC10000AAC10000A8C1000000
:10005000A6C10000A4C10000A2C100000C94FD19BB
:100060009EC100000C94E31C0C94191D98C1000063
:1000700096C1000094C1000092C1000090C1000030
:100080008EC100008CC100008AC1000088C1000040
:100090000C946F1D0C94A51D82C100000C94E62DDC
:1000A0007EC100007CC100007AC1000078C1000060
:1000B00076C1000074C1000072C1000070C1000070
:1000C0006EC100006CC100000C94D3200C94FB1D89
:1000D0000C94311E64C100000C94871E0C94BD1E4C
:1000E0005EC10000221B251B141B181B1E1B5C1B62
:1000F000291B2D1B331B371B3B1B411B451B491B5E
:100100005C1B4F1B531B571BDD289D2A072B0A2BFB
:10011000E129142A9C28BD288028E42AD32AE02A31
:100120000A2B0A2B0A2B6B2800000A0B02090C0D64
:100130000E0807030401000000000000000000009A
:1001400000000000000000000000000000000000AF
:10015000000000001211100000000000000000006C
:10016000000000000000000000000000000001028C
:1001700010202008081020401020408002010201B9
:100180000804020101020408102040808040201071
:1001900008040201800402018040201008040201CA
:1001A0000804020101020408102040800102040832
:1001B000102040800505050507050808080802020B
:1001C00002020A0A080804040404010101010101F1
:1001D00001010303030303030303040707070C0CD4
:1001E0000C0C0C0C0C0C020202020606060606069B
:1001F00006060B0B0B0B0B0B0B0B00002200250054
:1002000028002B002E0031003400020100000501FF
:1002100008010B0100002100240027002A002D0006
:100220003000330001010000040107010A0102004F
:100230001D3A2774694E53E8F5D2CF9C81A6BBCDF9
:10024000D0F7EAB9A4839E25381F02514C6B7687FC
:100250009ABDA0F3EEC9D46F7255481B06213C4AE3
:1002600057706D3E230419A2BF9885D6CBECF113CD
:100270000E2934677A5D40FBE6C1DC8F92B5A8DEBB
:10028000C3E4F9AAB7908D362B0C11425F786594C0
:1002900089AEB3E0FDDAC77C61465B0815322F59A1
:1002A00044637E2D30170AB1AC8B96C5D8FFE22689
:1002B0003B1C01524F6875CED3F4E9BAA7809DEB81
:1002C000F6D1CC9F82A5B8031E3924776A4D50A180
:1002D000BC9B86D5C8EFF24954736E3D20071A6C5B
:1002E00071564B1805223F8499BEA3F0EDCAD7354D
:1002F000280F12415C7B66DDC0E7FAA9B4938EF843
:10030000E5C2DF8C91B6AB100D2A3764795E43B23B
:10031000AF8895C6DBFCE15A47607D2E3314097F18
:100320006245580B16312C978AADB0E3FED9C40054
:10033000421DCE1D5A1EE61E521F372D11241FBE10
:10034000CFEFD1E2DEBFCDBF00E00CBF14E0A0E0F4
:10035000B2E0E4EFF8E600E00BBF02C007900D92B8
:10036000A833B107D9F729E0A8E3B4E001C01D9292
:10037000AE3EB207E1F711E0CEE9D1E000E006C001
:1003800021970109802FFE010E940133C839D1074E
:1003900080E00807A9F70E94662F0C94783430CECD
:1003A0008EBD00000DB407FEFDCF8EB50895CF932E
:1003B000C82F61E00E945D1B61E08C2FCF910C94EF
:1003C000991B0C94142F2F923F924F925F926F9231
:1003D0007F928F929F92AF92BF92CF92DF92EF92D5
:1003E000FF920F931F93CF93DF931F92CDB7DEB78A
:1003F000B82E1B01C42E80916408882399F03FB762
:10040000F89480916408813059F48DB38093620828
:100410009DB380916308809589238DBB3FBF02C047
:100420003093620880E58CBD1DBC60E08B2D298374
:100430000E94991BD12C2981223059F0233029F0B8
:10044000213061F4780181010CC0780100E010E0F6
:100450002DC07101480100E010E012C07801810157
:1004600044C0C801821993098C159D050CF04BC03E
:10047000F80181918F0194DFF70181937F01F1CF22
:100480000C151D050CF03FC0F701619071907F01C4
:10049000862D86DFA82E872D83DFF401A08281833D
:1004A000F2E08F0E911C0F5F1F4FEACF0C151D0558
:1004B00054F5F10141905190619071901F01842D8C
:1004C0006FDF882E852D6CDF982E862D69DFA82E94
:1004D000872D66DFF70180829182A2828383F4E018
:1004E000EF0EF11C0F5F1F4FE1CFC8018219930976
:1004F0008C159D0544F4F80181918F0151DFF701BE
:1005000081937F01F2CF61E08B2D0E94991B809136
:100510006408882361F09FB7F89420916408809163
:100520006208213019F48DBB9FBF01C08FBF0F90AF
:10053000DF91CF911F910F91FF90EF90DF90CF90BF
:10054000BF90AF909F908F907F906F905F904F90F3
:100550003F902F90089582EA97E00C94102DCF924F
:10056000DF92FF920F931F93CF93DF931F92CDB72C
:10057000DEB7F62E6901682F82EA97E049830E9470
:10058000192D4981FF2029F0642F82EA97E00E940B
:10059000D22CA801B60182EA97E00E94A32C82EA3D
:1005A00097E00F90DF91CF911F910F91FF90DF9017
:1005B000CF900C94352DE0916409F0916509A4EC7D
:1005C000B8E054964D915D916D917C915797408321
:1005D00051836283738350968D919D910D90BC9150
:1005E000A02D84839583A683B78308952F923F928D
:1005F0004F925F926F927F928F929F92AF92BF9233
:10060000CF92DF92EF92FF920F931F93CF93DF93DE
:10061000CDB7DEB7A9970FB6F894DEBF0FBECDBF3A
:100620008091C3099091C4098130910509F084C07B
:100630008091AB099091AC09A091AD09B091AE0940
:100640008F3F2FEF9207A207B20709F58091AF09FC
:100650009091B009A091B109B091B209BC01CD014E
:100660006F5F7F4F8F4F9F4F0E94FE302091B309E5
:100670003091B4094091B5095091B6090E945532A4
:1006800020E030E040E85FE40E94553230C0C09086
:10069000B309D090B409E090B509F090B609BC0157
:1006A000CD016F5F7F4F8F4F9F4F0E94FE30A7019C
:1006B00096010E9455324B015C016091AF09709127
:1006C000B0098091B1099091B2090E94FE30A70152
:1006D00096010E94553220E030E040E85FE40E943D
:1006E00055329B01AC01C501B4010E9402306093F8
:1006F000EF087093F0088093F1089093F20820912E
:10070000C8023091C9024091CA025091CB02609157
:10071000C4027091C5028091C6029091C7020E94E6
:100720005132181604F58091C0029091C102A09137
:10073000C202B091C3021FC0892B09F07BC0E091B7
:100740001F09F09120090190F081E02D80819181B5
:10075000A281B381E091C609F091C709808391839A
:10076000A283B38367C08091BC029091BD02A09127
:10077000BE02B091BF028093C4089093C508A093B5
:10078000C608B093C7088091FC0289838A838B8353
:100790008C838E010B5F1F4F21E044E0BE016F5F31
:1007A0007F4F85E310DEAD812091F8023091F90290
:1007B000B0E00E9409332E81620F711D811D911DD1
:1007C0000E9400316B017C018091FD02682F70E076
:1007D00080E090E00E94FE309B01AC01C701B601B1
:1007E0000E946A309B01AC016093C8087093C908ED
:1007F0008093CA089093CB086091C4087091C50893
:100800008091C6089091C7080E9401304B015C019D
:100810002091D0023091D1024091D2025091D30266
:100820000E9455326093CC087093CD088093CE0817
:100830009093CF088091C3099091C4090197F9F46E
:100840002091C4023091C5024091C6025091C70266
:1008500060ED79E081E090E06BD6892B81F08091AA
:10086000D4029091D502A091D602B091D702809384
:10087000BC089093BD08A093BE08B093BF088091B8
:10088000C3099091C409019799F52091D80230913C
:10089000D9024091DA025091DB02C501B4010E94F5
:1008A00055326093D0087093D1088093D20890930A
:1008B000D3082091C4023091C5024091C6025091E4
:1008C000C70261ED79E081E090E032D6892B81F0BA
:1008D0008091DC029091DD02A091DE02B091DF02F6
:1008E0008093C0089093C108A093C208B093C30836
:1008F0002091C0083091C1084091C2085091C308AE
:100900006091D0087091D1088091D2089091D3085D
:100910000E9401302091E0023091E1024091E20218
:100920005091E3020E9455326B017C016093D40820
:100930007093D5088093D6089093D7082091E80249
:100940003091E9024091EA025091EB026091C402B9
:100950007091C5028091C6029091C7020E945132E7
:1009600018160CF047C02091BC083091BD0840918A
:10097000BE085091BF086091CC087091CD0880915D
:10098000CE089091CF080E940230A70196010E94E4
:1009900002307B018C016090B6027090B702C0906B
:1009A000B802D090B9029301A6010E9451321816E4
:1009B00084F06090B2027090B302C090B402D09004
:1009C000B5029301A601B701C8010E94663087FFF6
:1009D00002C0730186012091CC023091CD0240917A
:1009E000CE025091CF02B701C8010E9402307B01B4
:1009F0008C0108C0E090E402F090E5020091E6026C
:100A00001091E7026090EC027090ED02C090EE024F
:100A1000D090EF029301A601B701C8010E945132A4
:100A2000181684F06090F0027090F102C090F2020B
:100A3000D090F3029301A601B701C8010E9466306D
:100A400087FF02C0730186016091FA027091FB0278
:100A500080E090E00E94FE309B01AC01B701C8012C
:100A60000E9455320E943B316B017C0155D58111AA
:100A700022C0C701B60127D581111DC020E030E09A
:100A800040E857E4C701B6010E9455316B017C0173
:100A90003B01870120E030E0A9010E94663087FF1A
:100AA0000EC0C701B60190580E94D23088279927FE
:100AB000861B970B09C0612C712C00E010E0B3017C
:100AC000C8010E94D230CB019093DD088093DC08EE
:100AD0002091C3093091C4092130310569F4209176
:100AE000BA023091BB022823392330910003329F90
:100AF000202D11242093DE082091FE022987609189
:100B0000FF02662321F070E00E94B83201C06FEF4F
:100B10006A878091DE088B8703E010E09E01275FE3
:100B20003F4F40E260E080E61ADD8091C30990917A
:100B3000C409019709F058C02091F4023091F502E0
:100B40004091F6025091F702C501B4010E9455325E
:100B50006093D8087093D9088093DA089093DB08E3
:100B600082E090E00E945118E091C609F091C70917
:100B7000408151816281738180E090E00E944D1834
:100B80008091C3099091C409019771F56091B709EB
:100B90007091B8098091B9099091BA090E94FE300C
:100BA0006B017C016091BB097091BC098091BD090A
:100BB0009091BE090E94FE3020E030E040E85FE402
:100BC0000E9455329B01AC01C701B6010E94023060
:100BD0002DEC3CEC4CEC5DE30E945532AB01BC01CA
:100BE00081E090E00E944D188091C3099091C40962
:100BF000019709F09FC28090BF099090C009A09012
:100C0000C109B090C20920E030E040E85FEBC501C7
:100C1000B4010E946630882309F448C06091B70986
:100C20007091B8098091B9099091BA090E94FE307B
:100C30006B017C016091BB097091BC098091BD0979
:100C40009091BE090E94FE3020E030E040E85FE471
:100C50000E9455329B01AC01C701B6010E940230CF
:100C60002DEC3CEC4CEC5DE30E9455326B017C01B9
:100C70009B01AC01C501B4010E9401304B015C0134
:100C800020E030E040E054E3C701B6010E94553255
:100C90009B01AC01C501B4010E945132181634F019
:100CA00086E193E09093E0088093DF088091C50986
:100CB000882331F086E193E09093E0088093DF0889
:100CC000E0911F09F09120090190F081E02D8081D1
:100CD0009181A281B381888B998BAA8BBB8B8091E8
:100CE000EF089091F008A091F108B091F2088E8F72
:100CF0009F8FA8A3B9A3E091F308F091F408C080F6
:100D0000D180E280F380E0912309F09124090081F1
:100D10001181E091E708F091E80820803180A281FC
:100D2000B381BD87AC87848195819F878E879681AB
:100D30009C8BA781A88FE091E508F091E6081182CD
:100D4000108288E0F801D10101900D928A95E1F7B7
:100D5000E0911D09F0911E098C859D85918380830A
:100D60002ADC20E030E040E05FE3C701B6010E94EA
:100D700055322B013C01AC85BD852D913D914D91A6
:100D80005C910E9455329B01AC01F101608171813F
:100D9000828193810E940230D8016D937D938D935F
:100DA0009C931397EC85FD8524813581468157817D
:100DB000C301B2010E9455329B01AC01D1011496CE
:100DC0006D917D918D919C9117970E940230F80151
:100DD0006483758386839783E0911F09F0912009CE
:100DE000A080B180A3019201688979898A899B8951
:100DF0000E940230D5016D937D938D939C93139740
:100E0000E0911D09F0911E098E859F859183808355
:100E1000EDDBD1DB20E030E0A901C701B6010E9483
:100E200055324B015C0120E030E040E45FE3C70154
:100E3000B6010E9455322B013C01AC85BD852D9138
:100E40003D914D915C91C501B4010E9455326A8F6C
:100E50007B8F8C8F9D8FEE85FF8520813181428134
:100E60005381C301B2010E9455329B01AC016A8DCE
:100E70007B8D8C8D9D8D0E9402309B01AC01D10138
:100E80006D917D918D919C910E940230F80160835B
:100E9000718382839383AC85BD8514962D913D919A
:100EA0004D915C911797C501B4010E9455324B01D9
:100EB0005C01EE85FF852481358146815781C30120
:100EC000B2010E9455329B01AC01C501B4010E94E0
:100ED00002309B01AC01D10114966D917D918D91F1
:100EE0009C9117970E940230F80164837583868372
:100EF0009783E0911F09F0912009A080B180A301A0
:100F00009201688979898A899B890E940230D5017A
:100F10006D937D938D939C931397E0911D09F091B0
:100F20001E09BC89B083288D218360DB44DB29E363
:100F30003EE843E65EE3C701B6010E9455326A8F80
:100F40007B8F8C8F9D8F2BEA3AEA4AEA5EE3C701DA
:100F5000B6010E9455326AA37BA38CA39DA329E30B
:100F60003EE843EE5EE3C701B6010E9455326EA330
:100F70007FA388A799A78C89888B988D998BD1019D
:100F80001896B98FA88FF10181919191A191B1919A
:100F90001F018C8B9D8BAE8BBF8BAC85BD856D91FE
:100FA0007D918D919D91BD87AC87EE85FF854190A8
:100FB000519061907190FF87EE87A889B989CD9093
:100FC000DD90ED90FD90B98BA88B2A8D3B8D4C8DDB
:100FD0005D8D0E9455324B015C012AA13BA14CA1C1
:100FE0005DA1C301B2010E9455329B01AC01C50154
:100FF000B4010E9402304B015C012EA13FA148A523
:1010000059A5C701B6010E9455329B01AC01C5012B
:10101000B4010E9402309B01AC016C897D898E89EC
:101020009F890E940230F80161937193819391939B
:101030008F01888D998D2816390609F0A4CFE0918B
:101040001F09F09120090190F081E02D8E8D9F8D78
:10105000A8A1B9A180839183A283B383E091E5081D
:10106000F091E60881E090E0918380838091AB0964
:101070009091AC09A091AD09B091AE090196A11D66
:10108000B11D8093AB099093AC09A093AD09B093C7
:10109000AE09892B8A2B8B2B99F48091AF09909103
:1010A000B009A091B109B091B2090196A11DB11D7D
:1010B0008093AF099093B009A093B109B093B2099E
:1010C0008091EF089091F008A091F108B091F2089A
:1010D000E091C609F091C70980839183A283B3830D
:1010E0008091B7099091B809A091B909B091BA0956
:1010F0000196A11DB11D8093B7099093B809A093E3
:10110000B909B093BA09892B8A2B8B2B99F480915A
:10111000BB099091BC09A091BD09B091BE0901968F
:10112000A11DB11D8093BB099093BC09A093BD097B
:10113000B093BE09A9960FB6F894DEBF0FBECDBF1F
:10114000DF91CF911F910F91FF90EF90DF90CF90A3
:10115000BF90AF909F908F907F906F905F904F90D7
:101160003F902F9008958F929F92AF92BF92FF92DF
:101170000F931F93CF93DF9384E090E06DD1EFED59
:10118000F8E081EFDF011D928A95E9F783EC99E0A1
:1011900097838683C6ECD9E0D0932009C0931F09BA
:1011A00023EBA22E29E0B22EB58AA48A24E639E0E8
:1011B00030931E0920931D092EE539E03093240950
:1011C0002093230943EA59E05093220940932109CF
:1011D00045EA59E0509326094093250940E659E035
:1011E000509328094093270942E659E050932A0971
:1011F00040932909F0934A09E0934909F583E48370
:1012000041E050E0DC014D935C938BE899E04BE6C4
:1012100059E0DC014D935C9343E759E050938E090C
:1012200040938D094BE759E05093900940938F0903
:1012300043E859E050939209409391090CEB18E070
:10124000D9010D931C93918780878AE293E093875D
:10125000828728EC39E03983288340E050E060E859
:101260007FEB4093BF095093C0096093C10970930D
:10127000C2094DEC5CEC6CEC7DE3E50148835983DD
:101280006A837B83C3E9D9E089EF98EFA8EDB6E7DD
:1012900088839983AA83BB838FEE9DE0A6EDBEE48D
:1012A0008093970990939809A0939909B0939A090C
:1012B0008BE096EBABE1BCE680939B0990939C0995
:1012C000A0939D09B0939E098DE59FE2A3E1B5E54A
:1012D00080939F099093A009A093A109B093A209BC
:1012E000A6E5B4E0B383A283EAE4F4E01196FC93AC
:1012F000EE9381EB93E09183808393838283958344
:10130000848397838683918780879387828789EAFE
:1013100099E015969C938E9314971396DC93CE9335
:10132000129717963C932E9316972BE1E4ECF8E076
:10133000DF011D922A95E9F728E0E80119922A9524
:10134000E9F7CAE6D8E022E5FE0111922A95E9F70D
:10135000E8E3F4E022E1DF011D922A95E9F7DC01E0
:10136000ED93FC9380E190E09183808382E992E0A9
:101370009383828382E792E09583848386E392E07D
:10138000978386838AE092E091878087FF24F39495
:10139000F092BB08812C912C5401839489829A820B
:1013A000AB82BC8285E303D8FD821EA2F092BA080C
:1013B0008FA298A6A9A6BAA6FBA6E0EDF9E083E065
:1013C00080838183E2EBF2E082A193A1A4A1B5A185
:1013D000E80188839983AA83BB8382A593A5A4A5EA
:1013E000B5A58C839D83AE83BF83DF91CF911F9181
:1013F0000F91FF90BF90AF909F908F900895809134
:101400006A08811103C081E080936A088091900886
:10141000811103C081E080939008089560E070E03E
:1014200080E89FE7089560E070E080E89FE7089516
:1014300060E070E080E89FEF089560E070E080E891
:101440009FEF089560E070E080EC9FEF089560E00A
:1014500070E080EC9FEF0895F5DF6093DE097093F4
:10146000DF098093E0099093E109F1DF6093D209ED
:101470007093D3098093D4099093D509CFDF6093FB
:10148000DA097093DB098093DC099093DD09CBDFE7
:101490006093D6097093D7098093D8099093D9099E
:1014A000C7DF6093E2097093E3098093E4099093A6
:1014B000E509C3DF6093E6097093E7098093E809C3
:1014C0009093E9090895CF92DF92EF92FF92CF9324
:1014D0006B017C012091DA093091DB094091DC0934
:1014E0005091DD090E946630C1E0882371F020919F
:1014F000E2093091E3094091E4095091E509C701FF
:10150000B6010E9466308111C0E08C2FCF91FF9010
:10151000EF90DF90CF900895CF93C1E09B01AC0195
:101520000E946630811101C0C0E08C2FCF910895D8
:101530008F929F92AF92BF92EF92FF920F931F9361
:10154000CF93DF93EC018B0149015A01FB01E0804D
:10155000FE2DF370FF2E20E030E0A901C501B4019B
:101560000E94513218166CF020E030E0A901C5014C
:10157000B4010E946630282F221F2227221F220F2B
:1015800001C021E084E0F89EF0011124E20FF11D7A
:10159000E954FC4F90812196C330D10520F4CC54FE
:1015A000DC4F888101C080E0892349F0E694E6940D
:1015B000E1FE02C092FD03C0E4FE02C095FD90E092
:1015C000892F880F880F282BF8012083892F887393
:1015D00039F4977081E020E009F480E0922F02C096
:1015E0008FEF9FEFDF91CF911F910F91FF90EF90C1
:1015F000BF90AF909F908F900895EF92FF920F93BE
:101600001F93CF93DF93DC01EA01F90114968D91CA
:101610009C91159712960D911C911397080F191F05
:101620002881398118964D915C911997421753077B
:1016300028F04D915C911197452B39F17801E21A10
:10164000F30A18964D915C911997481B590B4E0D52
:101650005F1D4617570794F1A901460F571F401702
:101660005107E0F0F182E082338322836E197F0913
:1016700075836483161617061CF4382F292F02C0B1
:1016800030E020E03683278313C018968D919C911B
:101690001997821B930B8617970784F071836083D9
:1016A000338322831582148217821682888199815E
:1016B000680F791F7983688380E001C081E0DF9142
:1016C000CF911F910F91FF90EF900895CF92DF92ED
:1016D000EF92FF92CF93DF936B017C0184E48C9DAA
:1016E000E0018D9DD00D1124CE59DB4F8AA99BA915
:1016F000009721F00E94C7331BAA1AAA84E48C9D8C
:10170000F0018D9DF00D1124EE59FB4F86A997A98C
:10171000009711F00E94C73384E48C9DF0018D9DE9
:10172000F00D1124EE59FB4F138A128A168A178A7C
:10173000108E118E128E138E148E158E168E178E9D
:1017400010A211A281E090E093A382A315A214A29B
:1017500016A217A210A611A613A612A615A614A6C5
:1017600016A617A610AA11AA13AA12AA15AA14AA95
:1017700017AA16AA11AE10AE12AE13AE14AE15AE65
:10178000DF01DE961D921D921D921C921397EE5B57
:10179000FF4F11821082DF91CF91FF90EF90DF9089
:1017A000CF9008950F931F93CF93DF93EB01DC014C
:1017B0008D919C91FC01A681B781E881F98123E09C
:1017C000EE0FFF1F2A95E1F712962D913C9113978A
:1017D000E20FF31F00811181AC85BD859D01220FB1
:1017E000331FDC0112968D919C911397D901A80F9C
:1017F000B91F8D919C9124813581232B19F461E0CF
:1018000070E002C062E070E0689F9001699F300D57
:10181000789F300D112488859985289FB001299FD4
:10182000700D389F700D1124EC81FD812E9FC00139
:101830002F9F900D3E9F900D1124800F911FFA0154
:101840009183808373836283DF91CF911F910F9186
:1018500008952F923F924F925F926F927F928F9254
:101860009F92AF92BF92CF92DF92EF92FF920F932F
:101870001F93CF93DF9300D000D0CDB7DEB7DC014C
:101880001496ED91FC9115970190F081E02D8085E3
:1018900091859A838983A281B381BC83AB83FB0149
:1018A00081909190A190B1908F01C12CD12C7601A3
:1018B000C814D904EA04FB040CF05FC0D8011496E4
:1018C0004D905D906D907C90179718964D915D911D
:1018D0006D917C911B97F8017096FE83ED83F80162
:1018E000A081B18183E0AA0FBB1F8A95E1F7E9814E
:1018F000FA8182819381A80FB91F2D903C90119796
:10190000F80124853585220F331F8B819C81280F98
:10191000391FF9010081118114968D919C911597C1
:10192000892B19F481E090E002C082E090E0809F72
:101930009001819F300D909F300D1124249F8001D4
:10194000259F100D349F100D1124249DC001259D4D
:10195000900D349D900D1124A8016D817E81820D22
:10196000931D0E945F348D819E81080F191F9FEF88
:10197000C91AD90AE90AF90A9BCF26960FB6F89434
:10198000DEBF0FBECDBFDF91CF911F910F91FF90B2
:10199000EF90DF90CF90BF90AF909F908F907F900F
:1019A0006F905F904F903F902F900895CF93DF936B
:1019B000DB01AF5FBC4F2C91222369F024E4269F0A
:1019C000F001279FF00D1124EE59FB4FEF01199202
:1019D0002A95E9F71C9224E4269FF001279FF00D39
:1019E0001124EE59FB4F148215821682178211863C
:1019F000108613861286118A108A17861686DF9142
:101A0000CF9164CE2F923F924F925F926F927F92CE
:101A10008F929F92AF92BF92CF92DF92EF92FF92FE
:101A20000F931F93CF93DF93CDB7DEB728970FB6F1
:101A3000F894DEBF0FBECDBF6B017C011A0184E4B8
:101A40008C9D90018D9D300D11242E593B4FF90135
:101A500084819581A681B781892B8A2B8B2B09F4F0
:101A6000B8C0A12CB12C412C512C320138872F83C6
:101A7000C90104969A838983D9011896BC83AB83E4
:101A8000E981FA8180819181A281B381481659064A
:101A90006A067B0694F5AB81BC81ED91FC91EA0D61
:101AA000FB1D228133818901812C912C82149304A6
:101AB000C4F4D801ED91FC91309769F0848195814F
:101AC0002D833E830E94C733F801808191810E945B
:101AD000C7333E812D81FFEF8F1A9F0A0E5F1F4F84
:101AE000E5CFC9010E94C7338FEF481A580A680A28
:101AF000780A94E0A90EB11CC3CFAF81B8851896BF
:101B00008D919C9119970E94C733EF81F88582854A
:101B10009385892B59F1A12CB12C812C912C84E433
:101B20008C9D80018D9D100D112404591B4F821432
:101B3000930484F4D801ED91FC91EA0DFB1D84819E
:101B400095810E94C733BFEF8B1A9B0AEEE0AE0E61
:101B5000B11CEDCF84E48C9DF0018D9DF00D11241E
:101B6000EE59FB4F828593850E94C73384E48C9D98
:101B700090018D9D300D112489010E591B4FD80104
:101B800050968D919C9151970E94C733F80186859C
:101B900097850E94C733C701B60198DDC701B6011A
:101BA00028960FB6F894DEBF0FBECDBFDF91CF9160
:101BB0001F910F91FF90EF90DF90CF90BF90AF906B
:101BC0009F908F907F906F905F904F903F902F905D
:101BD000EDCE28960FB6F894DEBF0FBECDBFDF91D5
:101BE000CF911F910F91FF90EF90DF90CF90BF901A
:101BF000AF909F908F907F906F905F904F903F90AD
:101C00002F90089524E4269FF001279FF00D1124C2
:101C1000EE59FB4F828993890497029758F485E027
:101C200090E0938B828B8FEF9FEFDC01828F938FFD
:101C3000A48FB58F08952F923F924F925F926F922B
:101C40007F928F929F92AF92BF92CF92DF92EF924C
:101C5000FF920F931F93CF93DF93CDB7DEB7E0973B
:101C60000FB6F894DEBF0FBECDBF9AA389A31B01A8
:101C70006A012801390184E4849D8001859D100D4D
:101C8000112498012E593B4F7901D9014D925D9253
:101C90006D927C921397AB01C301B201B3DEF801E0
:101CA000EA59FB4FD6014D915D916D917D918D016A
:101CB000CA01408351836283738364E070E00E94B1
:101CC0001833F70191878087892B09F499C11E8EFB
:101CD0001D8E198E1A8E1B8E1C8EF8A2EF8E970108
:101CE0002C5F3F4F38A72FA32C5F3F4F3AA729A760
:101CF000EFA1F8A580819181A281B381298D3A8DD0
:101D00004B8D5C8D281739074A075B070CF0E4C040
:101D1000A9A5BAA58D919C912D8D3E8D280F391FB7
:101D20003A8B298BD801ED91FC91EE0FFF1FA9A1F1
:101D3000BAA18D919C91E80FF91F80819181F901E1
:101D400091838083D80114962D913D914D915C91A2
:101D500017972BA33CA34DA35EA3085F1F4F62E020
:101D600070E0C1010E941833E989FA899383828364
:101D7000892B09F445C11D8A1E8A1F8A188E2D8958
:101D80003E894F89588D8BA19CA1ADA1BEA128177A
:101D900039074A075B070CF08CC0D801ED90FC9026
:101DA000EE0CFF1CE989FA89C280D380CE0CDF1CBF
:101DB00068E070E081E090E00E941833D6018D93D6
:101DC0009C93E989FA8982819381FC01EE0DFF1DC4
:101DD000C080D180C114D10409F412C1D801149675
:101DE0004D915D916D917C911797CA01F6014083E9
:101DF000518362837383085F1F4F64E070E00E9429
:101E00001833D60115969C938E931497892B09F459
:101E1000F7C01C8A1B8A812C912C5401F601808109
:101E20009181A281B38188169906AA06BB06A4F502
:101E3000F601E480F5802B893C89E20EF31EF8015F
:101E4000DE01119680E101900D928A95E1F7005F25
:101E50001F4FA701BE016F5F7F4FA9A1BAA11496C2
:101E60008D919C9115979EDCF60126813781D701D3
:101E700012968D919C911397820F931F978386835F
:101E8000BFEF8B1A9B0AAB0ABB0A2B893C892C5FDC
:101E90003F4F3C8B2B8BC2CF2D893E894F89588D6C
:101EA0002F5F3F4F4F4F5F4F2D8B3E8B4F8B588F88
:101EB00066CF298D3A8D4B8D5C8D2F5F3F4F4F4FF5
:101EC0005F4F298F3A8F4B8F5C8F2D8D3E8D2C5F0E
:101ED0003F4F3E8F2D8F0CCF6EE070E0C1010E940E
:101EE0001833AF8DB8A11B969C938E931A97812CB3
:101EF000912CA12CB12CC12CD12C24E4249DC00107
:101F0000259D900D11249C0124593B4F3A8B298B20
:101F100021E030E0A214B3040CF04AC0D8014D9186
:101F20005D916D917D918D01CA01E989FA89E08009
:101F3000F180E80CF91C57FD63C0D70111963C9362
:101F40002E930097A1F02FA738AB4BA75CA76DA7E6
:101F50007EA70E943233F701958384832FA538A989
:101F60004BA55CA56DA57EA5892B31F449C0D70191
:101F700015961C921E921497F70153834283848115
:101F8000958197838683918780871386128681E067
:101F900090E0452B462B472B11F480E090E0C80ED3
:101FA000D91EFFEFAF1ABF0A4EE0840E911CB2CFCC
:101FB00084E4849D8001859D100D11240E591B4FD2
:101FC000D8011D961C921E921C97C60133E0880F03
:101FD000991F3A95E1F70E943233F801918B808B7B
:101FE000892B71F0C601880F991F0E943233D801E6
:101FF0001F969C938E931E97892B11F080E005C04D
:10200000A101C301B201FEDC81E0E0960FB6F894B5
:10201000DEBF0FBECDBFDF91CF911F910F91FF901B
:10202000EF90DF90CF90BF90AF909F908F907F9078
:102030006F905F904F903F902F9008952F923F9216
:102040004F925F926F927F928F929F92AF92BF92C8
:10205000CF92DF92EF92FF920F931F93CF93DF9374
:10206000CDB7DEB768970FB6F894DEBF0FBECDBF11
:102070009C8B8B8BDB0149015A0124E4289DC00114
:10208000299D900D11249C012E593B4F79012D91D2
:102090003C911197F701358B248BFC01E858FB4FDD
:1020A00014964D915D916D917C911797408351836A
:1020B00062837383FC01E458FB4F18964D915D9148
:1020C0006D917C911B974083518362837383FC01E4
:1020D000E058FB4F1C964D915D916D917C911F973F
:1020E0004083518362837383FC01E057FB4F50961A
:1020F0005C91509751964C91519752963C915297C2
:1021000053962C91539750834183328323838D01BF
:102110000C5E1F4F852F942F181619060CF068C0FF
:10212000880F991F880F991F0E943233D701D396C9
:102130009C938E93D297892B09F4BCC0212C312C0F
:10214000412C512C32019701225D3F4F3E8B2D8B4C
:102150002C5F3F4F388F2F8B2E5F3F4F3A8B298B51
:10216000B301A2012FEF421A520A620A720AED89E4
:10217000FE8980819181A281B381481759076A073E
:102180007B074CF5AF89B88DCD90DC90C20CD31C89
:10219000F801DE01119680E101900D928A95E1F738
:1021A000005F1F4FA601BE016F5F7F4FEB89FC8967
:1021B00084819581F7DAA989BA898D919C911197CB
:1021C000F60122813381820F931F8D939C93F4E05B
:1021D0002F0E311CC5CFD701D4968D919C91D597E8
:1021E0000E943233F70197AB86AB892B09F462C0AA
:1021F000F80180819181A281B38124E4289DF001BE
:10220000299DF00D1124EE59FB4FAC01BD014D7F0E
:1022100021E030E0452B462B472B11F020E030E049
:1022200033A322A324E4289DF001299DF00D11245D
:10223000EE59FB4F0197A109B10921E030E0029767
:10224000A105B10510F020E030E035A324A384E41B
:10225000889DF001899DF00D1124CF0188579B4F77
:10226000D80114964D915D916D917C911797DC0189
:102270004D935D936D937C931397EE59FB4F868D31
:10228000978DA0A1B1A1B7FF10C0B095A095909572
:1022900081959F4FAF4FBF4F82AF93AFA4AFB5AF04
:1022A000168E178E10A211A20AC012AE13AE14AE73
:1022B00015AE05C0C501B40109DA81E001C080E0B6
:1022C00068960FB6F894DEBF0FBECDBFDF91CF91F9
:1022D0001F910F91FF90EF90DF90CF90BF90AF9044
:1022E0009F908F907F906F905F904F903F902F9036
:1022F0000895CF92DF92EF92FF92CF93DF931092E7
:10230000EA0424E4269FF001279FF00D1124EE59E2
:10231000FB4F15A614A620E030E0C12CD12CDF0124
:102320001A96C1E0D0E0C416D506D4F4ED91FC9124
:102330001197E20FF31FE280F3801E141F0454F480
:10234000E480F580F782E682F186E08613861286C5
:10235000D183C083EFEFCE1ADE0A225F3F4FE3CF77
:1023600024E4269FF001279FF00D1124EE59FB4F26
:1023700013A612A611AE10AEDF01DE961D921D92BD
:102380001D921C92139782E090E0938B828BDF91D9
:10239000CF91FF90EF90DF90CF90089524E4269F97
:1023A000F001279FF00D1124EE59FB4F138A128A7A
:1023B00029CB24E4269FF001279FF00D1124EE592C
:1023C000FB4F8289938981309105C8F08530910552
:1023D00018F0059769F008958FEF9FEFDC01828F69
:1023E000938FA48FB58F85E090E0938B828B0895B7
:1023F0008FEF9FEFDC01828F938FA48FB58F0895AD
:1024000024E4249FF001259FF00D1124EE59FB4F89
:102410002EE0AC01249FC001259F900D1124028461
:10242000F385E02DE80FF91F81E08093EA048285AF
:10243000938591878087408551852681378181E00A
:1024400090E04217530711F080E090E09183808381
:1024500008952F923F924F925F926F927F928F9248
:102460009F92AF92BF92CF92DF92EF92FF920F9323
:102470001F93CF93DF93CDB7DEB7C255D1090FB607
:10248000F894DEBF0FBECDBF21969FAF8EAF2197D0
:102490004BA75CA76DA77EA74801590184E4889DDE
:1024A0008001899D100D1124F801EE59FB4F228502
:1024B000338527963FAF2EAF27978289938902975E
:1024C00009F060C186A597A5A0A9B1A9892B8A2B7F
:1024D0008B2B29F484E090E0938B828B53C1848909
:1024E000958921964EAD5FAD21974817590709F0A0
:1024F00049C186A997A99AAB89AB1EAE1DAE19AE8C
:102500001AAE1BAE1CAE8F01DF019E962996BFAF9F
:10251000AEAF2997F2962B96FFAFEEAF2B979801AF
:10252000285C3F4F2D963FAF2EAF2D97A8014A5DF7
:102530005F4F2F965FAF4EAF2F97C801829661967F
:102540009FAF8EAF61971A976396BFAFAEAF639799
:102550002996EEADFFAD299780819181A281B3814B
:1025600029AD3AAD4BAD5CAD281739074A075B077B
:102570000CF0E7C02B96EEADFFAD2B9780819181DB
:102580002DAD3EAD280F391F3EAB2DABD9011296B4
:102590000D90BC91A02D2396BFAFAEAF2397B695FB
:1025A000A795B695A7952596BFAFAEAF25972D9663
:1025B000EEADFFAD2D9780819181892B09F496C0F6
:1025C0002F96AEADBFAD2F97CD90DD90ED90FC90E6
:1025D00029A83AA8F9010190F081E02DF8ABEFA706
:1025E00018AE1FAA8FA998AD2596AEADBFAD2597A1
:1025F0008A179B070CF07AC06196AEADBFAD6197AC
:102600008D919C91892B69F1EFA5F8A940805180AB
:1026100062807380A7019601C301B2010E9451320A
:1026200087FD0BC0A7019601D1016D917D918D9120
:102630009C910E94663087FD8CC0A7019601C30162
:10264000B2010E945132181664F4A7019601F101FB
:1026500060817181828193810E946630882309F4B0
:1026600078C06396AEADBFAD63978D919C91892B79
:1026700069F1EFA5F8A94080518062807380A701BD
:102680009601C301B2010E94663087FF0BC0A7010B
:102690009601D1016D917D918D919C910E94513255
:1026A00087FF57C0A7019601C301B2010E9466309F
:1026B00081110CC0A7019601F101608171818281B5
:1026C00093810E94513218160CF443C02FA938ADE3
:1026D0002F5F3F4F38AF2FAB34E0230E311C4FA597
:1026E00058A94C5F5F4F58AB4FA77CCFEDA9FEA90F
:1026F0006081718123964EAD5FAD239789A99AA918
:102700000E945F3425968EAD9FAD2597880F991F47
:10271000880F991F29A93AA9280F391F3AAB29AB6D
:1027200089AD9AADABADBCAD0196A11DB11D89AF10
:102730009AAFABAFBCAFADADBEAD1496BEAFADAF53
:1027400007CF81E090E0D801D9969C938E93D897DB
:1027500019C084E4889DF001899DF00D1124EE5983
:10276000FB4F868D978DA0A1B1A1892B8A2B8B2B36
:1027700009F064C284E090E0938B828B86AD97ADC4
:1027800093A782A784E4889DF001899DF00D112410
:10279000EE59FB4F828993898230910571F482ADA5
:1027A00093ADA4ADB5AD181619061A061B060CF0AC
:1027B0004CC2CC24C394D12C05C0049709F045C267
:1027C000C12CD12C8EE02196EEADFFAD21978E9FCE
:1027D00070018F9FF00C112427962EAD3FAD2797E7
:1027E000E20EF31ED70112964D915C91139741159D
:1027F000510509F42AC216968D919C9117979AA7B4
:1028000089A7FE01319684E1DF011D928A95E9F7DF
:10281000898A9A8AAB8ABC8AC114D10409F457C048
:1028200084E4889DF001899DF00D1124EE59FB4F41
:10283000DF01DE964D905D906D907C9082AD93AD02
:10284000A4ADB5AD481659066A067B0609F03FC02F
:10285000F701648175810084F185E02D8481958183
:10286000A681B7819C018D8B9E8BAF8BB88F285F23
:102870003F4F3E8B2D8BD70118968D919C911997C8
:10288000280F391F19963C932E93189718968D91FF
:102890009C911997460F571F841B950B97FD06C0F7
:1028A000860F971F19969C938E93189784E4889DA2
:1028B000F001899DF00D1124E056FB4FB1E04B1A59
:1028C00051086108710840825182628273829E01C0
:1028D0002B5E3F4FAE01475D5F4F64E170E0C70183
:1028E0000E94FD0A082F10E00115110509F091C1A1
:1028F0008CE090E0A0E0B0E08D839E83AF83B8874A
:102900009E01235E3F4FAE01475D5F4F64E070E084
:10291000C7010E94FD0A082F10E00115110509F0FA
:1029200078C180E190E0A0E0B0E08D839E83AF832A
:10293000B8874D8D5E8DBE01655D7F4F8F8D98A1EF
:102940000E945F348BA19CA1009761F06D8D7E8DFC
:10295000EBE2F0E0EC0FFD1F6E0F7F1F49A15AA1C3
:102960000E945F341DA21EA21FA218A621962EADA2
:102970003FAD2197220F331F38AF2FAB24E4289DA2
:10298000C001299D900D11248E599B4FAC014C5FC5
:102990005F4F5AAF49AFDC011896BEAFADAF2DA166
:1029A0003EA14FA158A529AB3AAB4BAB5CABE9AD0F
:1029B000FAAD80819181A281B381281739074A0736
:1029C0005B070CF0CFC0ADADBEADED91FC9189A918
:1029D0009AA9880F991F880F991FE80FF91FA081E6
:1029E000B1818C91882309F4AFC0833009F4ACC065
:1029F0000280F381E02D2FA938ADE20FF31F408153
:102A0000518158AB4FA7452B09F49EC089859A8503
:102A1000AB85BC850196A11DB11D89879A87AB87BF
:102A2000BC879E01235E3F4FAE01475D5F4F64E070
:102A300070E0C7010E94FD0A90E0009709F0E8C02D
:102A40008D819E81AF81B8850496A11DB11D8D83B6
:102A50009E83AF83B8874D8D5E8DBE016B5D7F4FCA
:102A60008F8D98A10E945F348BA19CA1009761F08B
:102A70006D8D7E8DA5E2B0E0AC0FBD1F6A0F7B1F90
:102A800049A15AA10E945F341EAA1DAA412C512CB3
:102A90003201EFA5F8A980819181A281B381481606
:102AA00059066A067B060CF04FC0EFA5F8A92480F2
:102AB00035802DA93EA9220E331ED10112966D91AB
:102AC0007C9113979E01235E3F4FAE01475D5F4FA0
:102AD000C7010E94FD0A90E0009709F099C0F1013A
:102AE00082819381092E000CAA0BBB0B4D815E8164
:102AF0006F817885840F951FA61FB71F8D839E83D6
:102B0000AF83B887608171814D8D5E8D8F8D98A167
:102B10000E945F348BA19CA1009759F0D1016D9167
:102B20007C912D8D3E8D620F731F49A15AA10E9489
:102B30005F34BFEF4B1A5B0A6B0A7B0AEDA9FEA953
:102B40003496FEABEDABA5CF49A85AA86BA87CA8DC
:102B5000FFEF4F1A5F0A6F0A7F0A4DA25EA26FA2B3
:102B600078A61DCF89859A85AB85BC85892B8A2B54
:102B70008B2B09F44EC08AE190E0A0E0B0E089839D
:102B80009A83AB83BC8321962EAD3FAD2197C901BB
:102B9000330FAA0BBB0B8D879E87AF87B88B4D89F0
:102BA0005E89BE016F5F7F4F8F89988D0E945F3471
:102BB0008B8D9C8D009761F06D897E8941E050E09E
:102BC0004C0F5D1F640F751F498D5A8D0E945F3435
:102BD00089A59AA5D70117969C938E93169711965F
:102BE0001C921E92CD2889F184E4889DF001899D74
:102BF000F00D1124E056FB4F80819181A281B381B9
:102C00000196A11DB11D80839183A283B3831DC052
:102C10008C01CD28D1F4012BC1F084E4889DF00112
:102C2000899DF00D1124EE59FB4F81E090E095A7AE
:102C300084A785E090E0938B828B07C083E090E0CF
:102C4000938B828B81E090E09BCDCE5ADF4F0FB605
:102C5000F894DEBF0FBECDBFDF91CF911F910F91D2
:102C6000FF90EF90DF90CF90BF90AF909F908F90AC
:102C70007F906F905F904F903F902F900895CF92EC
:102C8000DF92EF92FF920F931F936B017C0184E41C
:102C90008C9DF0018D9DF00D1124EE59FB4F828922
:102CA0009389009709F450C00197B9F482A593A5C0
:102CB0009C012F5F3F4F33A722A7092E000CAA0BC0
:102CC000BB0B028D138D248D358D80179107A207C4
:102CD000B307D1F5C701B6010CDB84E48C9DF0018C
:102CE0008D9DF00D1124EE59FB4F82899389039736
:102CF00059F582A593A59C012F5F3F4F33A722A7CB
:102D0000092E000CAA0BBB0B468D578D60A171A13B
:102D100084179507A607B707BCF086AD97AD93A7B4
:102D200082A784E090E0938B828B82AD93ADA4ADBB
:102D3000B5AD181619061A061B0634F4EE5BFF4FE4
:102D400081E090E0918380831F910F91FF90EF903D
:102D5000DF90CF90089524E4269FF001279FF00D87
:102D60001124EE59FB4F828993890497B1F482A50F
:102D700093A5019693A782A7092E000CAA0BBB0B63
:102D800046895789608D718D84179507A607B70707
:102D900021F485E090E0938B828B08952F923F92EF
:102DA0004F925F926F927F928F929F92AF92BF925B
:102DB000CF92DF92EF92FF920F931F93CF93DF9307
:102DC000CDB7DEB72E970FB6F894DEBF0FBECDBFDE
:102DD00049835A836B837C834901442E552E24E416
:102DE000249DF001259DF00D1124EE59FB4F228802
:102DF000338891012450310915861486223031051B
:102E000008F0DDC0DC0111961C921E9213961C92F4
:102E10001E921297A12CB12C60E070E09F01265FFA
:102E20003F4F38872F837F013CE0E30EF11CDF0129
:102E30005096BA87A9879F01225F3F4F3C872B8717
:102E4000681579050CF06FC0EF81F885A081B1811C
:102E50009D012A0D3B1D3E872D87D9012D913C9167
:102E60001197232B09F059C018960D911C911997B1
:102E70001296ED91FC911397FE83ED8316962D919A
:102E80003C911797D7014D915C91DA01E3E0AA0FCD
:102E9000BB1FEA95E1F7E985FA85C080D180FD0185
:102EA000EC0DFD1D440F551FAB85BC85CD90DC900E
:102EB0004C0D5D1DDA016D937C93D7014D915C91B2
:102EC00011974F5F5F4F4D935C9313830283AD85E2
:102ED000BE851B963C932E931A970217130748F44E
:102EE000201B310B318320831582148217821682B6
:102EF00014C0AD85BE851496CD90DC9015974D819C
:102F00005E814C0D5D1D401B510B518340832C197C
:102F10003D0935832483D782C6826F5F7F4FBEE031
:102F2000AB0EB11C8DCF24E4249D8001259D100D96
:102F300011240E591B4FF80124853585DC011196AB
:102F40003C932E934089518913965C934E9312972C
:102F50004685578515965C934E931497232BA1F5C0
:102F6000B5E02B16310481F51092EA04828D938D21
:102F7000A48DB58DAE014F5F5F4F64E070E08F3F71
:102F80009F4FAF4FBF4F59F480E290E00E946B24F7
:102F900069817A818B819C81A40100DA15C08FE15F
:102FA00090E00E946B24D8019B961C921E929A97E7
:102FB00081E090E053969C938E93529705C0FC015C
:102FC00011821082138212822E960FB6F894DEBF01
:102FD0000FBECDBFDF91CF911F910F91FF90EF906A
:102FE000DF90CF90BF90AF909F908F907F906F9029
:102FF0005F904F903F902F900895EF92FF920F9324
:103000001F93CF93DF937C018B01EA010E94EE2492
:10301000811121C08091030390910403049711F161
:1030200083E090E090930403809303031BC0988196
:103030009111F0CF28ED38EB45E050E060E070E012
:10304000CB010E947827AE01B801C7010E948627F4
:10305000C8010E9451278091EB049091EC04892BC8
:1030600031F3D8CFDF91CF911F910F91FF90EF9067
:103070000895CF93DF93209103033091040324300C
:10308000310541F0EB010E948627CE01DF91CF91FF
:103090000C945127DF91CF9108950C949C2B0C94A4
:1030A000912B0C947F2B0C9461270C94222B089568
:1030B00060E070E080E090E00C94C9240895AF9245
:1030C000BF92CF92DF92EF92FF920F931F93CF9315
:1030D000DF931F921F92CDB7DEB75C0169017A01C1
:1030E0008B0180E090E0C114D104E104F104F1F01F
:1030F000C114D10421E0E206F10410F4A60102C0DB
:103100004FEF5FEF9E012F5F3F4FB801C5010E9457
:103110003D2C8F3F2FEF920749F029813A81C21A47
:10312000D30AE108F108020F131FDDCF0F900F90B3
:10313000DF91CF911F910F91FF90EF90DF90CF9093
:10314000BF90AF900895089508951F920F920FB603
:103150000F9211240BB60F922F933F934F935F93CF
:103160006F937F938F939F93AF93BF93EF93FF934F
:10317000E0910903F0910A031995FF91EF91BF9136
:10318000AF919F918F917F916F915F914F913F91FF
:103190002F910F900BBE0F900FBE0F901F901895A0
:1031A0001F920F920FB60F9211240BB60F922F930E
:1031B0003F934F935F936F937F938F939F93AF93BF
:1031C000BF93EF93FF93E0910B03F0910C031995DC
:1031D000FF91EF91BF91AF919F918F917F916F91EF
:1031E0005F914F913F912F910F900BBE0F900FBEAB
:1031F0000F901F9018951F920F920FB60F921124E7
:103200000BB60F922F933F934F935F936F937F93E0
:103210008F939F93AF93BF93EF93FF93E0910D0331
:10322000F0910E031995FF91EF91BF91AF919F918E
:103230008F917F916F915F914F913F912F910F905F
:103240000BBE0F900FBE0F901F9018951F920F92FC
:103250000FB60F9211240BB60F922F933F934F93FB
:103260005F936F937F938F939F93AF93BF93EF93EE
:10327000FF93E0910F03F09110031995FF91EF91E7
:10328000BF91AF919F918F917F916F915F914F917E
:103290003F912F910F900BBE0F900FBE0F901F907C
:1032A00018951F920F920FB60F9211240BB60F9222
:1032B0002F933F934F935F936F937F938F939F933E
:1032C000AF93BF93EF93FF93E0910503F091060353
:1032D0001995FF91EF91BF91AF919F918F917F9140
:1032E0006F915F914F913F912F910F900BBE0F9077
:1032F0000FBE0F901F9018951F920F920FB60F924E
:1033000011240BB60F922F933F934F935F936F93BC
:103310007F938F939F93AF93BF93EF93FF93E0912E
:103320000703F09108031995FF91EF91BF91AF91B9
:103330009F918F917F916F915F914F913F912F91CD
:103340000F900BBE0F900FBE0F901F9018951F92FD
:103350000F920FB60F9211240BB60F922F933F933B
:103360004F935F936F937F938F939F93AF93BF938D
:10337000EF93FF93E0911103F09112031995FF91E0
:10338000EF91BF91AF919F918F917F916F915F91DD
:103390004F913F912F910F900BBE0F900FBE0F904A
:1033A0001F9018951F920F920FB60F9211240BB613
:1033B0000F922F933F934F935F936F937F938F93CE
:1033C0009F93AF93BF93EF93FF93E0911303F0911B
:1033D00014031995FF91EF91BF91AF919F918F9138
:1033E0007F916F915F914F913F912F910F900BBE05
:1033F0000F900FBE0F901F9018951F920F920FB64F
:103400000F9211242F933F938F939F93AF93BF936A
:103410008091EE049091EF04A091F004B091F1043A
:103420003091ED0423E0230F2D3720F40196A11DE8
:10343000B11D05C026E8230F0296A11DB11D2093E2
:10344000ED048093EE049093EF04A093F004B09306
:10345000F1048091F2049091F304A091F404B091EE
:10346000F5040196A11DB11D8093F2049093F3041D
:10347000A093F404B093F504BF91AF919F918F9105
:103480003F912F910F900FBE0F901F9018953FB74F
:10349000F8948091F2049091F304A091F404B09117
:1034A000F50426B5A89B05C02F3F19F00196A11D74
:1034B000B11D3FBFBA2FA92F982F8827820F911DCA
:1034C000A11DB11DBC01CD0142E0660F771F881F11
:1034D000991F4A95D1F708958F929F92AF92BF920C
:1034E000CF92DF92EF92FF926B017C01D0DF4B0114
:1034F0005C01C114D104E104F104F1F024DEC7DF62
:10350000DC01CB0188199909AA09BB09883E9340BF
:10351000A105B10570F321E0C21AD108E108F10854
:1035200088EE880E83E0981EA11CB11CC114D10442
:10353000E104F10421F7DDCFFF90EF90DF90CF9011
:10354000BF90AF909F908F900895789484B58260DB
:1035500084BD84B5816084BD85B5826085BD85B537
:10356000816085BDEEE6F0E0808181608083E1E8E6
:10357000F0E010828081826080838081816080831E
:10358000E0E8F0E0808181608083E1EBF0E0808121
:1035900084608083E0EBF0E0808181608083E1E9FA
:1035A000F0E0808182608083808181608083E0E9B7
:1035B000F0E0808181608083E1EAF0E080818260D8
:1035C0008083808181608083E0EAF0E08081816097
:1035D0008083E1E2F1E0808182608083808181608C
:1035E0008083E0E2F1E0808181608083EAE7F0E0BF
:1035F000808184608083808182608083808181601B
:1036000080838081806880831092C100089590E05B
:10361000FC013197E231F10508F04EC08827EE58E1
:10362000FF4F8F4F0C940133809180008F7703C040
:10363000809180008F7D809380000895809180002C
:10364000877FF9CF84B58F7702C084B58F7D84BD25
:1036500008958091B0008F7703C08091B0008F7D76
:103660008093B0000895809190008F7707C080917B
:1036700090008F7D03C080919000877F80939000A1
:1036800008958091A0008F7707C08091A0008F7D62
:1036900003C08091A000877F8093A000089580914F
:1036A00020018F7707C0809120018F7D03C080911A
:1036B0002001877F809320010895CF93DF9390E0CE
:1036C000FC01E259FE4F2491FC01EC54FE4F849121
:1036D000882361F190E0880F991FFC01EC5EFD4F9B
:1036E000C591D491FC01E650FE4FA591B4916111B2
:1036F00009C09FB7F8948881209582238883EC9134
:103700002E230BC0623061F49FB7F8943881822F6A
:10371000809583238883EC912E2B2C939FBF06C02A
:103720008FB7F894E8812E2B28838FBFDF91CF913C
:1037300008951F93CF93DF93282F30E0F901E85DC0
:10374000FE4F8491F901E259FE4FD491F901EC54F6
:10375000FE4FC491CC23C1F0162F811158DFEC2FFE
:10376000F0E0EE0FFF1FE650FE4FA591B4918FB72A
:10377000F894111105C09C91ED2FE095E92302C04A
:10378000EC91ED2BEC938FBFDF91CF911F910895BA
:10379000FC01918D228D892F90E0805C9F4F821BD0
:1037A00091098F7399270895FC01918D828D981747
:1037B00031F0828DE80FF11D858D90E008958FEF37
:1037C0009FEF0895FC01918D828D981761F0828D95
:1037D000DF01A80FB11D5D968C91928D9F5F9F7345
:1037E000928F90E008958FEF9FEF0895FC01848DF4
:1037F000DF01A80FB11DA35ABF4F2C91848D90E01B
:1038000001968F739927848FA689B7892C93A089F5
:10381000B1898C9180648C93938D848D981306C0AC
:103820000288F389E02D80818F7D80830895CF9376
:10383000DF93EC01888D8823C1F0EA89FB898081C0
:1038400085FD05C0A889B9898C9186FD0EC00FB68B
:1038500007FCF5CF808185FFF2CFA889B9898C91CB
:1038600085FFEDCFCE01C2DFE8CFDF91CF91089584
:10387000EF92FF920F931F93CF93DF93EC0181E0C0
:10388000888F9B8D8C8D981305C0E889F98980817C
:1038900085FD23C0F62E0B8D10E00F5F1F4F0F73B9
:1038A0001127E02E8C8DE8120BC00FB607FCFACF63
:1038B000E889F989808185FFF5CFCE0197DFF2CFC6
:1038C0008B8DFE01E80FF11DE35AFF4FF0820B8F45
:1038D000EA89FB898081806207C0EE89FF89608365
:1038E000E889F98980818064808381E090E0DF91BC
:1038F000CF911F910F91FF90EF900895CF92DF929B
:10390000EF92FF921F93CF93DF93EC016A017B014B
:10391000122FE889F98982E080834115514E6105B3
:103920007105B1F060E079E08DE390E0A7019601C8
:103930000E94DF32DA01C9010197A109B109B695E8
:10394000A79597958795AC01411580E15807A8F098
:10395000E889F989108260E874E88EE190E0A701B7
:1039600096010E94DF32BA01A90141505109610953
:1039700071097695679557954795EC85FD85508338
:10398000EE85FF854083188EEC89FD891083EA89D6
:10399000FB89808180618083EA89FB8980818860DE
:1039A0008083EA89FB89808180688083EA89FB893A
:1039B00080818F7D8083DF91CF911F91FF90EF9069
:1039C000DF90CF9008951F920F920FB60F9211249F
:1039D0000BB60F922F938F939F93EF93FF93E091EA
:1039E0000605F09107058081E0910C05F0910D0529
:1039F00082FD12C0908180910F058F5F8F7320919F
:103A00001005821751F0E0910F05F0E0EA50FB4FEE
:103A1000958F80930F0501C08081FF91EF919F9159
:103A20008F912F910F900BBE0F900FBE0F901F9094
:103A300018951F920F920FB60F9211240BB60F928A
:103A40002F933F934F935F936F937F938F939F93A6
:103A5000AF93BF93EF93FF9386EF94E0C7DEFF91A0
:103A6000EF91BF91AF919F918F917F916F915F91F6
:103A70004F913F912F910F900BBE0F900FBE0F9063
:103A80001F901895E6EFF4E01382128288EE93E01F
:103A9000A0E0B0E084839583A683B7838BEC93E0AA
:103AA0009183808385EC90E09587848784EC90E017
:103AB0009787868780EC90E0918B808B81EC90E0FB
:103AC000938B828B82EC90E0958B848B86EC90E0DC
:103AD000978B868B118E128E138E148E08951F92E3
:103AE0000F920FB60F9211240BB60F922F938F9354
:103AF0009F93EF93FF93E091A305F091A40580813C
:103B0000E091A905F091AA0582FD12C090818091F3
:103B1000AC058F5F8F732091AD05821751F0E09156
:103B2000AC05F0E0ED56FA4F958F8093AC0501C0DF
:103B30008081FF91EF919F918F912F910F900BBEFC
:103B40000F900FBE0F901F9018951F920F920FB6F7
:103B50000F9211240BB60F922F933F934F935F93C5
:103B60006F937F938F939F93AF93BF93EF93FF9345
:103B700083E995E03BDEFF91EF91BF91AF919F917B
:103B80008F917F916F915F914F913F912F910F9006
:103B90000BBE0F900FBE0F901F901895E3E9F5E054
:103BA0001382128288EE93E0A0E0B0E084839583D4
:103BB000A683B7838BEC93E0918380838DEC90E0B8
:103BC000958784878CEC90E09787868788EC90E0D7
:103BD000918B808B89EC90E0938B828B8AEC90E0C8
:103BE000958B848B8EEC90E0978B868B118E128E4A
:103BF000138E148E08951F920F920FB60F921124F8
:103C00000BB60F922F938F939F93EF93FF93E091B7
:103C10004006F09141068081E0914606F09147060A
:103C200082FD12C09081809149068F5F8F73209131
:103C30004A06821751F0E0914906F0E0E05DF94F45
:103C4000958F8093490601C08081FF91EF919F91EC
:103C50008F912F910F900BBE0F900FBE0F901F9062
:103C600018951F920F920FB60F9211240BB60F9258
:103C70002F933F934F935F936F937F938F939F9374
:103C8000AF93BF93EF93FF9380E396E0AFDDFF9197
:103C9000EF91BF91AF919F918F917F916F915F91C4
:103CA0004F913F912F910F900BBE0F900FBE0F9031
:103CB0001F901895E0E3F6E01382128288EE93E0FD
:103CC000A0E0B0E084839583A683B7838BEC93E078
:103CD0009183808385ED90E09587848784ED90E0E3
:103CE0009787868780ED90E0918B808B81ED90E0C7
:103CF000938B828B82ED90E0958B848B86ED90E0A8
:103D0000978B868B118E128E138E148E08951F92B0
:103D10000F920FB60F9211240BB60F922F938F9321
:103D20009F93EF93FF93E091DD06F091DE06808193
:103D3000E091E306F091E40682FD12C0908180914B
:103D4000E6068F5F8F732091E706821751F0E091AE
:103D5000E606F0E0E353F94F958F8093E60601C045
:103D60008081FF91EF919F918F912F910F900BBECA
:103D70000F900FBE0F901F9018951F920F920FB6C5
:103D80000F9211240BB60F922F933F934F935F9393
:103D90006F937F938F939F93AF93BF93EF93FF9313
:103DA0008DEC96E023DDFF91EF91BF91AF919F9154
:103DB0008F917F916F915F914F913F912F910F90D4
:103DC0000BBE0F900FBE0F901F901895EDECF6E014
:103DD0001382128288EE93E0A0E0B0E084839583A2
:103DE000A683B7838BEC93E09183808385E391E096
:103DF0009587848784E391E09787868780E391E0C5
:103E0000918B808B81E391E0938B828B82E391E0B5
:103E1000958B848B86E391E0978B868B118E128E27
:103E2000138E148E08958F929F92AF92BF92CF926D
:103E3000DF92EF92FF920F931F93CF93DF937C015A
:103E40008B016C0182E0C80ED11C4701E5E08E0EAB
:103E5000911CC0E0D0E0F60161916F014AE050E0B2
:103E6000C801C6D05C016EE2C80167D08A0D9B1DF7
:103E7000C80FD91FC814D90471F74AE050E0F70100
:103E80006581C801B5D08C0F9D1FDF91CF911F9127
:103E90000F91FF90EF90DF90CF90BF90AF909F90E9
:103EA0008F900895EAE6F7E08BED93E091838083AD
:103EB00012821382148215820895CF92DF92EF92BC
:103EC000FF920F931F93CF93DF936C017A018B01C5
:103ED000C0E0D0E0CE15DF0589F0D8016D918D01ED
:103EE000D601ED91FC910190F081E02DC60119956C
:103EF000892B11F47E0102C02196ECCFC701DF911E
:103F0000CF911F910F91FF90EF90DF90CF90089588
:103F10006115710579F0FB0101900020E9F73197F7
:103F2000AF01461B570BDC01ED91FC910280F38140
:103F3000E02D199480E090E00895DC01ED91FC9172
:103F40000190F081E02D19944F925F926F927F92D1
:103F5000EF92FF920F931F93CF93DF93CDB7DEB70E
:103F6000A1970FB6F894DEBF0FBECDBF7C01FA015A
:103F7000CB0119A2223008F42AE08E010F5D1F4FF9
:103F8000422E512C612C712CBF01A30192010E9481
:103F9000DF32F901CA01015011096A3014F4605D81
:103FA00001C0695CD8016C93232B242B252B61F76E
:103FB000B801C701ADDFA1960FB6F894DEBF0FBE02
:103FC000CDBFDF91CF911F910F91FF90EF907F9028
:103FD0006F905F904F9008952115310541F4DC01F9
:103FE000ED91FC910190F081E02D642F1994ACCFFC
:103FF0009A01462F50E060E070E0EECF8230A9F0E9
:1040000028F4882349F0813051F00895843021F15B
:10401000E8F0853039F1089510926E00089580918E
:104020006F008D7F80936F000895809170008D7F69
:104030008093700081E08093B0008091B100887F10
:1040400084608093B1001092B30008958091710054
:104050008D7F809371000895809172008D7F809391
:1040600072000895809173008D7F8093730008958E
:10407000CF93C82F809115038C1307C0EEE2F2E0B6
:10408000E4918FEF8093150301C0EFEF8E2FB6DF21
:1040900060E08C2FCF914DCB1F920F920FB60F92F5
:1040A00011240BB60F922F933F934F935F936F930F
:1040B0007F938F939F93AF93BF93EF93FF938091E1
:1040C000730790917407A0917507B0917607892BBB
:1040D0008A2B8B2B51F180917007E0917107F09141
:1040E000720790818927808380917307909174076C
:1040F000A0917507B0917607181619061A061B06C7
:10410000BCF48091730790917407A0917507B091EA
:1041100076070197A109B1098093730790937407FB
:10412000A0937507B093760703C080911503A0DFB5
:10413000FF91EF91BF91AF919F918F917F916F917F
:104140005F914F913F912F910F900BBE0F900FBE3B
:104150000F901F90189540E855E260E070E080E015
:1041600090E004D00E94AB020C94E10181309105F3
:1041700071F01CF4892B39F008958230910559F0C3
:10418000039769F0089526E086EF94E00BC026E0DF
:1041900083E995E007C026E080E396E003C026E0CF
:1041A0008DEC96E0ABCB1F920F920FB60F921124BD
:1041B0000BB60F922F933F934F935F936F937F9321
:1041C0008F939F93AF93BF93EF93FF9386E997EEFF
:1041D00090932501809324010E944A2FFF91EF9133
:1041E000BF91AF919F918F917F916F915F914F910F
:1041F0003F912F910F900BBE0F900FBE0F901F900D
:10420000189586E997EE9093250180932401A3E702
:10421000B0E08C918E7F8C93E0E2F1E080818C7F26
:104220008083E1E2F1E08081877E80838081846009
:10423000808380818C7F80838C9181608C930895B2
:1042400081E008956F927F928F929F92AF92BF927A
:10425000CF92DF92EF92FF920F931F93CF93DF9352
:104260005C017B014A0101E010E00E151F0564F5B9
:1042700068018FEFC81AD80AE801CC0FDD1FC80DFE
:10428000D91D6880798061147104E1F06DED73E0EF
:10429000C3010E946F34892B19F41982188212C04D
:1042A00060EE73E0C3010E946F34892B59F4CE1481
:1042B000DF0441F06801E2E0CE0ED11C19821882C1
:1042C0001B821A828601D1CF81E0F5018083B4017F
:1042D000C7010E94C72BF5019283818380E090E0A3
:1042E000DF91CF911F910F91FF90EF90DF90CF90D2
:1042F000BF90AF909F908F907F906F90089587E7C9
:1043000097E0089580E008950F931F93CF93DF9374
:104310008B01BA01E901198218829801012E000C63
:10432000440B550BFC01818192810E945F1801961C
:1043300021F01983088380E001C081E0DF91CF91F3
:104340001F910F9108950F931F93CF93DF931F92A7
:104350001F92CDB7DEB7FB018A01B9019E012F5F25
:104360003F4FAF01FC01818192810E94DE2B0196BB
:1043700039F089819A81F8019183808380E001C0BE
:1043800081E00F900F90DF91CF911F910F910895D1
:10439000FC01808108950895089581E0FB018083E8
:1043A00080E0089508951092A1070895FC0181818D
:1043B00092810C94BE2BCF93DF93CDB7DEB72A97B3
:1043C0000FB6F894DEBF0FBECDBFAC01CB0160E0ED
:1043D00070E049835A836B837C83092E000CAA0BFF
:1043E000BB0B8D839E83AF83B8879E01275F3F4FB2
:1043F000AE014F5F5F4F68E070E080919007909151
:10440000910782DF811108C081E029853A85283033
:10441000310519F480E001C081E02A960FB6F894C6
:10442000DEBF0FBECDBFDF91CF9108950F931F93D5
:10443000CF93DF931F921F92CDB7DEB78B019E0102
:104440002F5F3F4FAC0180919007909191075CDF07
:10445000811108C081E029813A812017310719F4C0
:1044600080E001C081E00F900F90DF91CF911F910C
:104470000F910895CF93DF93EC011092940710925F
:1044800093071092A00710929F07AC0160E070E0C4
:10449000CB010E94CE11AE0161E070E080E090E0BF
:1044A0000E94CE118091900790919107DF91CF915A
:1044B00079CF4F925F926F927F928F929F92AF923D
:1044C000BF92CF92DF92EF92FF920F931F93CF9301
:1044D000DF931F921F92CDB7DEB79C016C0197FF4F
:1044E00003C087E0C80ED11C43E0D594C7944A9519
:1044F000E1F7C90168E070E00E94CC327C018901DB
:104500000E5F1F4F80918E0790918F078017910744
:104510000CF0DCC080918C0790918D07009731F0F2
:104520000E94C73310928F0710928E07C8010E9415
:10453000323390938D0780938C07892B29F0109349
:104540008F0700938E07C2C0A12CB12CAC14BD0400
:104550000CF05EC0412C512C320100E010E09801BB
:104560002B56384FAE014F5F5F4F61E070E0809196
:10457000900790919107E7DE811198C189819A8116
:104580002FEF421A520A620A720A20E942162FE5F8
:10459000520621E0620671043CF060919F07709121
:1045A000A0078DEE90E02DC0080F191F0A301105ED
:1045B00051F549E050E060E070E085E997E00E9445
:1045C000692C60919F077091A0078823C1F08091AA
:1045D0009D0790E06817790709F0B8CF8EEE90E05C
:1045E000EADE80919F079091A0070196992790930A
:1045F000A00780939F078FEFA81AB80AA7CF8FEE66
:1046000090E0D9DEA7CF0A3011050CF4A8CF9ECFD9
:10461000EF2809F44BC1C12CD12C760100E010E049
:1046200098012B56384FAE014F5F5F4F61E070E04D
:10463000809190079091910786DE811137C1898121
:104640009A812FEFC21AD20AE20AF20A20E9C216B0
:104650002FE5D20621E0E206F1043CF060919F07CD
:104660007091A0078DEE90E02AC0080F191F0A3044
:10467000110539F549E050E060E070E085E997E028
:104680000E94692C60919F077091A0078823A9F070
:1046900080919D0790E06817790709F007C18EEEB9
:1046A00090E089DE80919F079091A007019699275D
:1046B0009093A00780939F07F9C08FEE90E07BDE78
:1046C000AACF0A3011050CF4ABCFF0C000E010E027
:1046D0000C151D050CF077C0412C512C3201A12C7A
:1046E000B12C480193E0880C991C9A95E1F7209130
:1046F0008C0730918D07C4018A0D9B1D280F391F2F
:10470000AE014F5F5F4F61E070E080919007909144
:10471000910719DE8111CAC089819A812FEF421A4F
:10472000520A620A720A20E942162FE5520621E077
:10473000620671043CF060919F077091A0078DEEB6
:1047400090E034C0A80EB91E8AE0A816B104A9F5FD
:1047500049E050E0B40180918C0790918D070E9450
:10476000692C60919F077091A0078823E9F08091E0
:104770008C0790918D07FC01E80DF91D808590E074
:104780006817790709F0A4CF8EEE90E014DE8091CF
:104790009F079091A007019699279093A007809377
:1047A0009F070F5F1F4F94CF8FEE90E004DE412CE8
:1047B000512C3201A12CB12C9ACF2AE0A216B104BF
:1047C0000CF495CF85CFE114F10409F46AC06801B7
:1047D00083E0CC0CDD1C8A95E1F7812C912C5401EF
:1047E00000E010E098012B56384FAE014F5F5F4F4D
:1047F00061E070E08091900790919107A4DD8111B4
:1048000055C089819A812FEF821A920AA20AB20AB0
:1048100020E982162FE5920621E0A206B1043CF0C1
:1048200060919F077091A0078DEE90E034C0080F53
:10483000191F0A30110589F549E050E060E070E089
:1048400085E997E00E94692C60919F077091A0070D
:104850008823F9F080919D0790E06817790709F5A2
:104860008EEE90E0A8DD80918C0790918D07A701D6
:1048700065E977E08C0D9D1D0E945F3480919F0754
:104880009091A007019699279093A00780939F0786
:1048900008C08FEE90E08FDDA0CF0A3011050CF438
:1048A000A1CF80918C0790918D0702C080E090E0AD
:1048B0000F900F90DF91CF911F910F91FF90EF908C
:1048C000DF90CF90BF90AF909F908F907F906F9030
:1048D0005F904F900895CF92DF92EF92FF920F93E7
:1048E0001F93CF93DF931F92CDB7DEB76C017B018F
:1048F0008A01452B31F0AB0160E070E0C801E5D7DB
:104900008983B701C60157DD81110DC0011511055D
:1049100051F0B701C8018ADD811105C061E070E086
:10492000CE01019683DD0F90DF91CF911F910F9102
:10493000FF90EF90DF90CF900895CF92DF92EF92AB
:10494000FF92CF93DF93CDB7DEB728970FB6F894D9
:10495000DEBF0FBECDBF6B01E12CF12CC982DA8224
:10496000EB82FC822D833E834F835887AE014F5FDD
:104970005F4F68E070E0AFDF28960FB6F894DEBFB7
:104980000FBECDBFDF91CF91FF90EF90DF90CF9022
:1049900008950F931F93CF93DF93EC018B01AFDC4E
:1049A0009093910780939007009739F0A801BE017A
:1049B00049DCEC01892B19F40BC0CCEED3E08091DB
:1049C000900790919107E7DC109291071092900761
:1049D000CE01DF91CF911F910F91089580919007A3
:1049E00090919107D5CC2F923F924F925F926F9208
:1049F0007F928F929F92AF92BF92CF92DF92EF926F
:104A0000FF920F931F93CF93DF93CDB7DEB76997D4
:104A10000FB6F894DEBF0FBECDBF209194072223BE
:104A200009F426C25D8B4C8B688B798B8A8B9B8BB0
:104A30009A01AB01BC01CE0101960E94CE1610E096
:104A400038E0232E312C89819A81181619060CF032
:104A50000AC21F861E861D861C8689819A81AC85A6
:104A6000BD85A817B9070CF0F3C1EB81FC812E8539
:104A70003F85E20FF31F2081318130938B07209314
:104A80008A07848195819093890780938807428162
:104A900053815093870740938607468157815093EF
:104AA000850740938407820F931F9C01990F440B45
:104AB000550B2E8B3F8B488F598FC12CD12C7601F3
:104AC0002E893F89488D598DC216D306E406F50616
:104AD00008F0A2C11F8260918A0770918B078B0139
:104AE000072E000C220B330BD701C6010496A11D23
:104AF000B11D80179107A207B30728F4E09186073C
:104B0000F09187070AC0E4E0F0E0E61BF70BEC0D3C
:104B1000FD1D8091840790918507E80FF91F408063
:104B2000512C612C712CD701C6010596A11DB11D18
:104B300080179107A207B30728F4E0918607F09148
:104B400087070AC0E5E0F0E0E61BF70BEC0DFD1D62
:104B50008091840790918507E80FF91F8081582A7A
:104B6000D701C6010696A11DB11D80179107A207A6
:104B7000B30728F4E0918607F09187070AC0E6E0C2
:104B8000F0E0E61BF70BEC0DFD1D80918407909182
:104B90008507E80FF91F8081682AD701C6010796AB
:104BA000A11DB11D80179107A207B30728F4E0915A
:104BB0008607F09187070AC0E7E0F0E0E61BF70BF5
:104BC000EC0DFD1D8091840790918507E80FF91F7A
:104BD0008081782A4601570148E0840E911CA11C6F
:104BE000B11C081519052A053B0508F4B4C0C01608
:104BF000D106E206F30638F4809186079091870784
:104C00008C0D9D1D09C0C601861B970B2091840742
:104C100030918507820F931F68E070E007DCE09118
:104C20008A07F0918B079F010F2E000C440B550B48
:104C3000D301C201880D991DAA1DBB1D2817390774
:104C40004A075B07C8F082169306A406B50638F437
:104C50002091860730918707C601089609C0C101D7
:104C60008E1B9F0B8C0D9D1D209184073091850715
:104C7000820F931FB20199C08601BF01685071096C
:104C80006C197D0982169306A406B50638F42091A6
:104C9000860730918707C601089609C0C1018E1B9F
:104CA0009F0B8C0D9D1D2091840730918507820FED
:104CB000931FBCDB80918A0790918B07B101681B21
:104CC000790B600F711F640D751D809184079091A1
:104CD0008507ACDB80918A0790918B07AC01485027
:104CE0005109FA01E01BF10BAC01092E000C660B17
:104CF000770B84169506A606B70638F4209186072A
:104D000030918707C60108960AC09101281B390B0C
:104D1000C9018C0D9D1D2091840730918507820F5C
:104D2000931FAF0160E070E0D0D58F8320918A0798
:104D300030918B07A101421B530B9A01200F311FA9
:104D4000240D351D40E050E0682F8091840790913C
:104D50008507A7D550C0C016D106E206F306C8F4F1
:104D60006C197D0980918607909187078C0D9D1D98
:104D70005DDB80918A0790918B07B101681B790BED
:104D80006C0D7D1D640D751D8091840790918507C4
:104D90000CC0C601861B970B2091840730918507B4
:104DA000B201685F7F4F820F931F40DB80918A07BB
:104DB00090918B07AC01092E000C660B770B8416C3
:104DC0009506A606B70638F4209186073091870726
:104DD000C60108960AC0D101A81BB90BCD018C0DE4
:104DE0009D1D2091840730918507820F931FA2019A
:104DF00060E070E06AD58F8361E070E0CE010796D5
:104E000015DB182FB8E04B0E511C611C711CC40C33
:104E1000D51CE61CF71C54CE8C859D85880F991FE8
:104E2000ED81FE81E80FF91F488959896A897B89DC
:104E3000808191810E9400124C855D854F5F5F4F9C
:104E40005D874C878E859F8508969F878E8705CEC8
:104E50002C893D89488959896A897B89CE010196C7
:104E60000E94CE16F0CD112319F08C899D8902DBAA
:104E700069960FB6F894DEBF0FBECDBFDF91CF911C
:104E80001F910F91FF90EF90DF90CF90BF90AF9068
:104E90009F908F907F906F905F904F903F902F905A
:104EA0000895CF93DF93EC01AC0160E070E0CB019B
:104EB0009ADDAE0161E070E080E090E0DF91CF919B
:104EC00092CDCF9380919007909191071BDAC82FD4
:104ED00081110BC060E070E0CB010E94D60C61E054
:104EE00070E080E090E00E94D60C8C2FCF91089566
:104EF0000F931F9389019A01AB01BC018091900728
:104F00009091910749DA1F910F9108953F924F9226
:104F10005F926F927F928F929F92AF92BF92CF9249
:104F2000DF92EF92FF920F931F93CF93DF93CDB752
:104F3000DEB767970FB6F894DEBF0FBECDBF6C012A
:104F40007B015A0180919407882331F08091940766
:104F5000882309F45FC30AC064E977E08091900771
:104F6000909191071ADA811155C3F0CF8091930780
:104F70001A821982882309F46AC0E0E94E2EEFE50F
:104F80005E2E66246394712C00E010E09801265890
:104F9000384FAE014F5F5F4F61E070E08091900746
:104FA00090919107D0D9982E81114DC089819A8115
:104FB000080F191F0115110509F445C081E0481AB1
:104FC00051086108710839F460919F077091A0073A
:104FD0008DEE90E030C00A30110589F549E050E0CF
:104FE00060E070E08AE797E074D460919F07709169
:104FF000A0078823F1F08091820790E06817790775
:10500000D9F48EEE90E0D7D988E0EAE7F7E0DE0148
:10501000199601900D928A95E1F720919F073091A2
:10502000A0072F5F3F4F33273093A00720939F07A0
:105030000AC08FEE90E0BFD91A82198204C00A30EC
:1050400011050CF4A3CF81E029813A8124C000E04E
:1050500010E078E0672E712C29E030E02C0F3D1F26
:10506000200F311FAE014F5F5F4FB301601B710B0B
:10507000809190079091910766D9982E29813A8165
:10508000811108C0020F131F0115110519F0083016
:10509000110514F381E0121613060CF080E0911054
:1050A000B6C2882309F4B6C280919307811104C067
:1050B00019861A861B861C8689859A85AB85BC85D0
:1050C0008031910508F0A6C2FC018827EC57FF4FFC
:1050D0008F4F0C940133D6011696ED91FC911797E2
:1050E00080819181A281B38189839A83AB83BC83C0
:1050F000AE014F5F5F4F64E070E085E190E07FC1FB
:105100008D859E85D6D9009731F42FEF3FEFA90109
:1051100061E070E00EC0FC0180809180A280B380CD
:10512000A701C501B4010E947911A501940160E0B5
:1051300070E08DE190E069C28D859E85BAD90097B7
:1051400021F42FEF3FEFA90110C0DC018D909D905D
:10515000AD90BD90AD0195018401B701C6010E94DB
:105160001B0EA5019401882319F061E070E002C0D4
:1051700060E070E08BE190E048C28D859E8599D912
:10518000009721F42FEF3FEFA9010FC0FC018190A0
:105190009190A190B190BF01A5019401C6010E9418
:1051A0001E10A5019401882319F061E070E002C08F
:1051B00060E070E08CE190E028C2D6011496ED9199
:1051C000FC91159700811181F80182809380A08065
:1051D000B18060E1462E512C612C712C49825A829B
:1051E0006B827C8288E090E0A0E0B0E08D839E83BB
:1051F000AF83B8879E012F5E3F4FAE014F5F5F4F79
:1052000068E070E080919007909191077DD88823A5
:1052100019F000E010E0BBC089899A890897C9F7A6
:10522000D801ED90FC90B8E0EB0EF11CEE0CFF1CE9
:10523000EE0CFF1CC7010E9432338C01892B49F30D
:1052400049825A826B827C82C7010F2C000CAA0B08
:10525000BB0B8D839E83AF83B8879E012F5E3F4F2C
:10526000AE014F5F5F4F68E070E0809190079091D2
:1052700091074AD881118BC089899A89089709F0CA
:1052800086C0D6011296ED91FC9113974081518111
:1052900062817381D8014D935D936D937C931397D5
:1052A000448155816681778114964D935D936D930A
:1052B0007C931797408551856285738518964D9329
:1052C0005D936D937C931B9784859585A685B785A3
:1052D000F80184879587A687B787108A118A128A72
:1052E000138A84E090E0A0E0B0E0848B958BA68BDD
:1052F000B78B8091030390910403A0E0B0E0808F0E
:10530000918FA28FB38FC5010B2C000CAA0BBB0B86
:10531000848F958FA68FB78FF401D801909680E087
:1053200090E08A159B0554F44191519160E070E042
:105330004D935D936D937D930196F3CF9E012F5E08
:105340003F4FA801B70180919007909191070E946B
:10535000842181111CC089899A898E159F05B9F411
:10536000A70160E070E0C801B0D28B8B9E012F5E78
:105370003F4FAE014D5E5F4F61E070E0809190075E
:10538000909191070E94842181E080939307C80146
:1053900067960FB6F894DEBF0FBECDBFDF91CF91F9
:1053A0001F910F91FF90EF90DF90CF90BF90AF9043
:1053B0009F908F907F906F905F904F903F900C9454
:1053C000C7338D859E85AF85B8890097A105B10546
:1053D00021F481E0809392071DC16BD8009789F476
:1053E00081E090E0A0E0B0E089839A83AB83BC8346
:1053F000AE014F5F5F4F64E070E082E190E06BDAF6
:1054000009C1BC01C6010E94290C19821A821B82A3
:105410001C82AE014F5F5F4F64E070E082E190E07C
:105420005ADA8111F7C0D5CFD6011496ED91FC91CF
:1054300015970190F081E02D008511858FEF89830C
:105440000115110509F472C0D8016D907C90A280FD
:10545000B38020E030E060E070E080E090E086150E
:1054600097050CF5F801A281B381A20FB31F129624
:10547000ED91FC911397EE0FFF1FEA0DFB1D0190BC
:10548000F081E02D16960D90BC91A02DEA9FA00111
:10549000EB9F500DFA9F500D1124640F751F01965C
:1054A000285F3F4FDCCF83E190E00E94DB21811138
:1054B000B1C0C12CD12CE12CF12CE614F7047CF501
:1054C000D8011296ED91FC911397EC0DFD1D808093
:1054D0009180A281B381AA0FBB1FAA0DBB1D2D9184
:1054E0003C9186819781289F2001299F500C389FED
:1054F000500C1124B201C4010E941622382E9201D0
:1055000040E050E06981C401CCD18983B8E0CB0E82
:10551000D11C31107FC0EFEFEE1AFE0ACECF61E052
:1055200070E0CE0101960E94162274C060E070E027
:1055300083E190E00E94DB216DC040E050E060E03C
:1055400070E081E190E0C7D9811164C0812C912C79
:105550005401C501B4010E94020E8091EA0488231F
:1055600021F0A701C501B4013EDAA701C501B401CC
:105570000E94020D8A9489288A288B2829F0812C80
:10558000912C54018394E5CF1092940710929307C5
:105590001092A00710929F07809190079091910719
:1055A0000E94D32137C081E090E09093EC04809377
:1055B000EB0440E050E060E070E086E190E01FCF57
:1055C00081E0D5018C9326C08D859E850E9459224D
:1055D000009731F42FEF3FEFA90161E070E013C0B5
:1055E000FC012081318142815381CA01B9012C8B98
:1055F0003D8B4E8B5F8B0E94D9112C893D894E8942
:105600005F8960E070E08EE190E097D903C0C70148
:105610000E943A2267960FB6F894DEBF0FBECDBF48
:10562000DF91CF911F910F91FF90EF90DF90CF907E
:10563000BF90AF909F908F907F906F905F904F90B2
:105640003F900895CF92DF92EF92FF92CF93DF9336
:10565000EC01C12CD12C7601C701B6010E94020ECB
:10566000AE01C701B601BFD9AE01C701B6010E94A4
:10567000020D80918C0790918D07009731F00E9468
:10568000C73310928D0710928C07CA94CD28CE286C
:10569000CF2829F0C12CD12C7601C394DDCF809185
:1056A0009307882359F040E050E060E070E084E127
:1056B00090E011D9F82E1092930701C0F12C80913F
:1056C0009407882341F01092940781E090E0909332
:1056D00004038093030380919007909191070E94A7
:1056E000D62180919007909191070E94CB218F2D18
:1056F000DF91CF91FF90EF90DF90CF900895CF93FF
:10570000DF93EC01AC0160E070E0CB010E943F163A
:10571000AE0161E070E080E090E0DF91CF910C9409
:105720003F1660E070E0CB010E94AB1661E070E0D4
:1057300080E090E00C94AB16CF92DF92EF92FF9254
:105740000F931F93CF93DF93EC016A017B0100E07D
:1057500010E098010E94291201E010E020E030E002
:10576000B701A601CE010E942912DF91CF911F91AE
:105770000F91FF90EF90DF90CF90089568EE73E067
:1057800080E090E00E946C1A80E090E0089526E0AE
:1057900040E050E16EE070E086EF94E00E947E1CF5
:1057A00086EF94E00E94C81B892B29F086EF94E0D5
:1057B0000E94E21BF5CF80E090E00895AF92BF9287
:1057C000CF92DF92EF92FF920F931F93CF93DF93CD
:1057D0001F921F92CDB7DEB77A018901F9011182BC
:1057E000108286EF94E069837A830E94C81B6981E6
:1057F0007A81892B99F15B01DD24D39485E6C82E4B
:105800008091A107811124C086EF94E00E94E21BE1
:1058100085369105A9F7D092A107F501C1925F01E4
:10582000F80180819181019691838083E9CF86EF91
:1058300094E00E94E21B8F3FFFEF9F0749F0F501C4
:1058400081935F01F801808191810196918380832A
:10585000F801808191818E159F0548F380E090E0EA
:105860000F900F90DF91CF911F910F91FF90EF90CC
:10587000DF90CF90BF90AF9008950F931F93CF9379
:10588000DF93EA01890186EF94E00E945D1FF80131
:10589000D183C08380E090E0DF91CF911F910F9181
:1058A0000895DC01A40FB51F240F351FAD01481B5F
:1058B000590B4217530738F4ED91E627F0E0E15D0C
:1058C000FD4F6491F3CF862F08959A01AB016FEFDE
:1058D000E8CFCF93FC01E60FF71FE40FF51FC0815F
:1058E000F4DF91E0C81390E0892FCF910895809163
:1058F000D20790E02091D307821B910908959091DF
:10590000D3078091D207981750F4E92FF0E0EC52BA
:10591000F84F208130E09F5F9093D30702C02FEFB4
:105920003FEFC9010895E091D3078091D207E817AE
:1059300030F4F0E0EC52F84F808190E008958FEF62
:105940009FEF08950895CF92DF92EF92FF920F9309
:105950001F93CF93DF937C01262F972F8A0180918D
:10596000AE07882391F0C62FD72F6E01C40ED51E27
:10597000CC15DD0569F06991D701ED91FC9101909D
:10598000F081E02DC7011995F3CF642F822FE6D067
:10599000C801DF91CF911F910F91FF90EF90DF90A1
:1059A000CF900895CF93DF931F92CDB7DEB7698371
:1059B0002091AE072223D1F02091AF07203240F092
:1059C00021E030E0FC013383228380E090E014C0CA
:1059D0008091B007E82FF0E0EF54F84F9981908361
:1059E0008F5F8093B0078093AF0704C061E0CE0162
:1059F0000196B4D081E090E00F90DF91CF910895AF
:105A0000FC011382128288EE93E0A0E0B0E0848370
:105A10009583A683B7838BE294E091838083089576
:105A20001092D3071092D2071092B0071092AF07CE
:105A300021C081E08093AE076093D1071092B00738
:105A40001092AF0708950F93062F21E04091AF0702
:105A500061EB77E08091D1072BD01092B0071092C4
:105A6000AF071092AE070F91089561E0ECCF82EA84
:105A700097E0C6CF1092610881E080935F08109292
:105A80005E0861E084E10E94991B61E085E10E946B
:105A9000991BE9EBF0E080818E7F808380818D7F90
:105AA000808388E48093B80085E48093BC000895E7
:105AB0000F93413208F04AC0909161089111FCCFD8
:105AC00032E03093610800935F083FEF3093F407B2
:105AD0001092390840933808FB016AE378E0DB0153
